{
  "_format": "hh-sol-artifact-1",
  "contractName": "Lacat",
  "sourceName": "contracts/Lacat.sol",
  "abi": [
    {
      "inputs": [],
      "stateMutability": "nonpayable",
      "type": "constructor"
    },
    {
      "anonymous": false,
      "inputs": [
        {
          "indexed": false,
          "internalType": "address",
          "name": "depositor",
          "type": "address"
        },
        {
          "indexed": false,
          "internalType": "uint256",
          "name": "amount",
          "type": "uint256"
        },
        {
          "indexed": false,
          "internalType": "uint256",
          "name": "depositNo",
          "type": "uint256"
        },
        {
          "indexed": false,
          "internalType": "uint256",
          "name": "when",
          "type": "uint256"
        },
        {
          "indexed": false,
          "internalType": "uint256",
          "name": "unlockTime",
          "type": "uint256"
        }
      ],
      "name": "Deposited",
      "type": "event"
    },
    {
      "anonymous": false,
      "inputs": [
        {
          "indexed": false,
          "internalType": "address",
          "name": "depositor",
          "type": "address"
        },
        {
          "indexed": false,
          "internalType": "uint256",
          "name": "amount",
          "type": "uint256"
        },
        {
          "indexed": false,
          "internalType": "uint256",
          "name": "depositNo",
          "type": "uint256"
        },
        {
          "indexed": false,
          "internalType": "uint256",
          "name": "when",
          "type": "uint256"
        },
        {
          "indexed": false,
          "internalType": "uint256",
          "name": "unlockTime",
          "type": "uint256"
        }
      ],
      "name": "FinalWithdraw",
      "type": "event"
    },
    {
      "anonymous": false,
      "inputs": [
        {
          "indexed": false,
          "internalType": "address",
          "name": "depositor",
          "type": "address"
        },
        {
          "indexed": false,
          "internalType": "uint256",
          "name": "amount",
          "type": "uint256"
        },
        {
          "indexed": false,
          "internalType": "uint256",
          "name": "amountRemaining",
          "type": "uint256"
        }
      ],
      "name": "MonthlyWithdraw",
      "type": "event"
    },
    {
      "anonymous": false,
      "inputs": [
        {
          "indexed": true,
          "internalType": "address",
          "name": "previousOwner",
          "type": "address"
        },
        {
          "indexed": true,
          "internalType": "address",
          "name": "newOwner",
          "type": "address"
        }
      ],
      "name": "OwnershipTransferred",
      "type": "event"
    },
    {
      "inputs": [
        {
          "internalType": "uint256",
          "name": "unlockTime",
          "type": "uint256"
        },
        {
          "internalType": "uint256",
          "name": "monthlyWithdrawBasisPoints",
          "type": "uint256"
        }
      ],
      "name": "deposit",
      "outputs": [],
      "stateMutability": "payable",
      "type": "function"
    },
    {
      "inputs": [
        {
          "internalType": "uint256",
          "name": "depositNo",
          "type": "uint256"
        }
      ],
      "name": "getDepositStatus",
      "outputs": [
        {
          "internalType": "uint256",
          "name": "amount",
          "type": "uint256"
        },
        {
          "internalType": "uint256",
          "name": "unlockTime",
          "type": "uint256"
        }
      ],
      "stateMutability": "view",
      "type": "function"
    },
    {
      "inputs": [],
      "name": "getNumDeposits",
      "outputs": [
        {
          "internalType": "uint256",
          "name": "",
          "type": "uint256"
        }
      ],
      "stateMutability": "view",
      "type": "function"
    },
    {
      "inputs": [],
      "name": "owner",
      "outputs": [
        {
          "internalType": "address",
          "name": "",
          "type": "address"
        }
      ],
      "stateMutability": "view",
      "type": "function"
    },
    {
      "inputs": [],
      "name": "renounceOwnership",
      "outputs": [],
      "stateMutability": "nonpayable",
      "type": "function"
    },
    {
      "inputs": [
        {
          "internalType": "address",
          "name": "newOwner",
          "type": "address"
        }
      ],
      "name": "transferOwnership",
      "outputs": [],
      "stateMutability": "nonpayable",
      "type": "function"
    },
    {
      "inputs": [
        {
          "internalType": "uint256",
          "name": "depositNo",
          "type": "uint256"
        }
      ],
      "name": "withdraw",
      "outputs": [],
      "stateMutability": "nonpayable",
      "type": "function"
    },
    {
      "inputs": [
        {
          "internalType": "address",
          "name": "to",
          "type": "address"
        }
      ],
      "name": "withdrawFees",
      "outputs": [],
      "stateMutability": "nonpayable",
      "type": "function"
    },
    {
      "inputs": [
        {
          "internalType": "uint256",
          "name": "depositNo",
          "type": "uint256"
        }
      ],
      "name": "withdrawMonthlyAllowance",
      "outputs": [],
      "stateMutability": "nonpayable",
      "type": "function"
    }
  ],
  "bytecode": "0x608060405234801561001057600080fd5b5061002d61002261003a60201b60201c565b61004260201b60201c565b6000600381905550610106565b600033905090565b60008060009054906101000a900473ffffffffffffffffffffffffffffffffffffffff169050816000806101000a81548173ffffffffffffffffffffffffffffffffffffffff021916908373ffffffffffffffffffffffffffffffffffffffff1602179055508173ffffffffffffffffffffffffffffffffffffffff168173ffffffffffffffffffffffffffffffffffffffff167f8be0079c531659141344cd1fd0a4f28419497f9722a3daafe3b4186f6b6457e060405160405180910390a35050565b6116cf806101156000396000f3fe6080604052600436106100865760003560e01c8063ad0d921411610059578063ad0d92141461011f578063b2e4b0421461015d578063d37ad4be14610186578063e2bbb158146101b1578063f2fde38b146101cd57610086565b8063164e68de1461008b5780632e1a7d4d146100b4578063715018a6146100dd5780638da5cb5b146100f4575b600080fd5b34801561009757600080fd5b506100b260048036038101906100ad9190610e5f565b6101f6565b005b3480156100c057600080fd5b506100db60048036038101906100d69190610ec2565b610258565b005b3480156100e957600080fd5b506100f261048e565b005b34801561010057600080fd5b506101096104a2565b6040516101169190610efe565b60405180910390f35b34801561012b57600080fd5b5061014660048036038101906101419190610ec2565b6104cb565b604051610154929190610f28565b60405180910390f35b34801561016957600080fd5b50610184600480360381019061017f9190610ec2565b610609565b005b34801561019257600080fd5b5061019b6108c7565b6040516101a89190610f51565b60405180910390f35b6101cb60048036038101906101c69190610f6c565b610915565b005b3480156101d957600080fd5b506101f460048036038101906101ef9190610e5f565b610bbb565b005b6101fe610c3f565b6000600354905060006003819055508173ffffffffffffffffffffffffffffffffffffffff166108fc829081150290604051600060405180830381858888f19350505050158015610253573d6000803e3d6000fd5b505050565b808060026000610266610cbd565b73ffffffffffffffffffffffffffffffffffffffff1673ffffffffffffffffffffffffffffffffffffffff16815260200190815260200160002054116102e1576040517f08c379a00000000000000000000000000000000000000000000000000000000081526004016102d890611009565b60405180910390fd5b6000600160006102ef610cbd565b73ffffffffffffffffffffffffffffffffffffffff1673ffffffffffffffffffffffffffffffffffffffff168152602001908152602001600020838154811061033b5761033a611029565b5b906000526020600020906004020190506000816000015411610392576040517f08c379a0000000000000000000000000000000000000000000000000000000008152600401610389906110a4565b60405180910390fd5b80600101544210156103d9576040517f08c379a00000000000000000000000000000000000000000000000000000000081526004016103d090611136565b60405180910390fd5b600081600001549050600082600001819055506103f4610cbd565b73ffffffffffffffffffffffffffffffffffffffff166108fc829081150290604051600060405180830381858888f19350505050158015610439573d6000803e3d6000fd5b507fabedfafcc3b3fdbf28a39bed3886dcdede6b8dc413bb342b88f243c83294d848610463610cbd565b836000015486428660010154604051610480959493929190611156565b60405180910390a150505050565b610496610c3f565b6104a06000610cc5565b565b60008060009054906101000a900473ffffffffffffffffffffffffffffffffffffffff16905090565b6000808280600260006104dc610cbd565b73ffffffffffffffffffffffffffffffffffffffff1673ffffffffffffffffffffffffffffffffffffffff1681526020019081526020016000205411610557576040517f08c379a000000000000000000000000000000000000000000000000000000000815260040161054e90611009565b60405180910390fd5b600060016000610565610cbd565b73ffffffffffffffffffffffffffffffffffffffff1673ffffffffffffffffffffffffffffffffffffffff16815260200190815260200160002085815481106105b1576105b0611029565b5b9060005260206000209060040201604051806080016040529081600082015481526020016001820154815260200160028201548152602001600382015481525050905080600001518160200151935093505050915091565b808060026000610617610cbd565b73ffffffffffffffffffffffffffffffffffffffff1673ffffffffffffffffffffffffffffffffffffffff1681526020019081526020016000205411610692576040517f08c379a000000000000000000000000000000000000000000000000000000000815260040161068990611009565b60405180910390fd5b6000600160006106a0610cbd565b73ffffffffffffffffffffffffffffffffffffffff1673ffffffffffffffffffffffffffffffffffffffff16815260200190815260200160002083815481106106ec576106eb611029565b5b906000526020600020906004020190506000816000015411610743576040517f08c379a000000000000000000000000000000000000000000000000000000000815260040161073a906110a4565b60405180910390fd5b600081600201541161078a576040517f08c379a00000000000000000000000000000000000000000000000000000000081526004016107819061121b565b60405180910390fd5b62278d00816003015461079d919061126a565b4210156107df576040517f08c379a00000000000000000000000000000000000000000000000000000000081526004016107d690611332565b60405180910390fd5b60008160000154826002015411156107fb578160000154610801565b81600201545b9050600061081c828460000154610d8990919063ffffffff16565b9050808360000181905550428360030181905550610838610cbd565b73ffffffffffffffffffffffffffffffffffffffff166108fc839081150290604051600060405180830381858888f1935050505015801561087d573d6000803e3d6000fd5b507f809ad51c2dcd91ba932b748e66a18e0f4a31924cdb8be8c95083a509068dd16c6108a7610cbd565b83836040516108b893929190611352565b60405180910390a15050505050565b6000600260006108d5610cbd565b73ffffffffffffffffffffffffffffffffffffffff1673ffffffffffffffffffffffffffffffffffffffff16815260200190815260200160002054905090565b428211610957576040517f08c379a000000000000000000000000000000000000000000000000000000000815260040161094e906113fb565b60405180910390fd5b6000811015801561096a57506127108111155b6109a9576040517f08c379a00000000000000000000000000000000000000000000000000000000081526004016109a09061148d565b60405180910390fd5b60008082116109b95760006109bc565b600f5b60236109c8919061126a565b905060006109d63483610d9f565b9050600081346109e691906114ad565b905060006109f43486610d9f565b9050600060026000610a04610cbd565b73ffffffffffffffffffffffffffffffffffffffff1673ffffffffffffffffffffffffffffffffffffffff16815260200190815260200160002054905060016000610a4d610cbd565b73ffffffffffffffffffffffffffffffffffffffff1673ffffffffffffffffffffffffffffffffffffffff168152602001908152602001600020604051806080016040528085815260200189815260200184815260200160008152509080600181540180825580915050600190039060005260206000209060040201600090919091909150600082015181600001556020820151816001015560408201518160020155606082015181600301555050600181610b09919061126a565b60026000610b15610cbd565b73ffffffffffffffffffffffffffffffffffffffff1673ffffffffffffffffffffffffffffffffffffffff168152602001908152602001600020819055508360036000828254610b65919061126a565b925050819055507fe3b53cd1a44fbf11535e145d80b8ef1ed6d57a73bf5daa7e939b6b01657d6549610b95610cbd565b8483428b604051610baa959493929190611156565b60405180910390a150505050505050565b610bc3610c3f565b600073ffffffffffffffffffffffffffffffffffffffff168173ffffffffffffffffffffffffffffffffffffffff161415610c33576040517f08c379a0000000000000000000000000000000000000000000000000000000008152600401610c2a90611553565b60405180910390fd5b610c3c81610cc5565b50565b610c47610cbd565b73ffffffffffffffffffffffffffffffffffffffff16610c656104a2565b73ffffffffffffffffffffffffffffffffffffffff1614610cbb576040517f08c379a0000000000000000000000000000000000000000000000000000000008152600401610cb2906115bf565b60405180910390fd5b565b600033905090565b60008060009054906101000a900473ffffffffffffffffffffffffffffffffffffffff169050816000806101000a81548173ffffffffffffffffffffffffffffffffffffffff021916908373ffffffffffffffffffffffffffffffffffffffff1602179055508173ffffffffffffffffffffffffffffffffffffffff168173ffffffffffffffffffffffffffffffffffffffff167f8be0079c531659141344cd1fd0a4f28419497f9722a3daafe3b4186f6b6457e060405160405180910390a35050565b60008183610d9791906114ad565b905092915050565b6000610dc8612710610dba8486610dd090919063ffffffff16565b610de690919063ffffffff16565b905092915050565b60008183610dde91906115df565b905092915050565b60008183610df49190611668565b905092915050565b600080fd5b600073ffffffffffffffffffffffffffffffffffffffff82169050919050565b6000610e2c82610e01565b9050919050565b610e3c81610e21565b8114610e4757600080fd5b50565b600081359050610e5981610e33565b92915050565b600060208284031215610e7557610e74610dfc565b5b6000610e8384828501610e4a565b91505092915050565b6000819050919050565b610e9f81610e8c565b8114610eaa57600080fd5b50565b600081359050610ebc81610e96565b92915050565b600060208284031215610ed857610ed7610dfc565b5b6000610ee684828501610ead565b91505092915050565b610ef881610e21565b82525050565b6000602082019050610f136000830184610eef565b92915050565b610f2281610e8c565b82525050565b6000604082019050610f3d6000830185610f19565b610f4a6020830184610f19565b9392505050565b6000602082019050610f666000830184610f19565b92915050565b60008060408385031215610f8357610f82610dfc565b5b6000610f9185828601610ead565b9250506020610fa285828601610ead565b9150509250929050565b600082825260208201905092915050565b7f4c616361743a204465706f73697420646f65736e277420657869737400000000600082015250565b6000610ff3601c83610fac565b9150610ffe82610fbd565b602082019050919050565b6000602082019050818103600083015261102281610fe6565b9050919050565b7f4e487b7100000000000000000000000000000000000000000000000000000000600052603260045260246000fd5b7f4c616361743a204465706f73697420616c72656164792077697468647261776e600082015250565b600061108e602083610fac565b915061109982611058565b602082019050919050565b600060208201905081810360008301526110bd81611081565b9050919050565b7f4c6f636b3a204465706f736974206e6f742079657420726561647920746f206260008201527f652077697468647261776e000000000000000000000000000000000000000000602082015250565b6000611120602b83610fac565b915061112b826110c4565b604082019050919050565b6000602082019050818103600083015261114f81611113565b9050919050565b600060a08201905061116b6000830188610eef565b6111786020830187610f19565b6111856040830186610f19565b6111926060830185610f19565b61119f6080830184610f19565b9695505050505050565b7f4c616361743a204d6f6e746c79207769746864726177616c206e6f7420616c6c60008201527f6f77656400000000000000000000000000000000000000000000000000000000602082015250565b6000611205602483610fac565b9150611210826111a9565b604082019050919050565b60006020820190508181036000830152611234816111f8565b9050919050565b7f4e487b7100000000000000000000000000000000000000000000000000000000600052601160045260246000fd5b600061127582610e8c565b915061128083610e8c565b9250827fffffffffffffffffffffffffffffffffffffffffffffffffffffffffffffffff038211156112b5576112b461123b565b5b828201905092915050565b7f4c616361743a204c617374207769746864726177616c2077617320776974686960008201527f6e2061206d6f6e74680000000000000000000000000000000000000000000000602082015250565b600061131c602983610fac565b9150611327826112c0565b604082019050919050565b6000602082019050818103600083015261134b8161130f565b9050919050565b60006060820190506113676000830186610eef565b6113746020830185610f19565b6113816040830184610f19565b949350505050565b7f4c616361743a20556e6c6f636b2074696d65206d75737420626520696e20667560008201527f7475726500000000000000000000000000000000000000000000000000000000602082015250565b60006113e5602483610fac565b91506113f082611389565b604082019050919050565b60006020820190508181036000830152611414816113d8565b9050919050565b7f4c616361743a204d6f6e74686c7920776974686472617720626173697320706f60008201527f696e74206d757374206265206265747765656e203020616e6420313030303000602082015250565b6000611477603f83610fac565b91506114828261141b565b604082019050919050565b600060208201905081810360008301526114a68161146a565b9050919050565b60006114b882610e8c565b91506114c383610e8c565b9250828210156114d6576114d561123b565b5b828203905092915050565b7f4f776e61626c653a206e6577206f776e657220697320746865207a65726f206160008201527f6464726573730000000000000000000000000000000000000000000000000000602082015250565b600061153d602683610fac565b9150611548826114e1565b604082019050919050565b6000602082019050818103600083015261156c81611530565b9050919050565b7f4f776e61626c653a2063616c6c6572206973206e6f7420746865206f776e6572600082015250565b60006115a9602083610fac565b91506115b482611573565b602082019050919050565b600060208201905081810360008301526115d88161159c565b9050919050565b60006115ea82610e8c565b91506115f583610e8c565b9250817fffffffffffffffffffffffffffffffffffffffffffffffffffffffffffffffff048311821515161561162e5761162d61123b565b5b828202905092915050565b7f4e487b7100000000000000000000000000000000000000000000000000000000600052601260045260246000fd5b600061167382610e8c565b915061167e83610e8c565b92508261168e5761168d611639565b5b82820490509291505056fea26469706673582212202294a24b388d8f8ec8da9a3679bc2f1adef7e2504f4934f9ff839c8f55fcbbc764736f6c63430008090033",
  "linkReferences": {},
  "deployedLinkReferences": {}
}