{
    "_format": "hh-sol-artifact-1",
    "contractName": "Lacat",
    "sourceName": "contracts/Lacat.sol",
    "abi": [
        {
            "inputs": [],
            "stateMutability": "nonpayable",
            "type": "constructor"
        },
        {
            "anonymous": false,
            "inputs": [
                {
                    "indexed": false,
                    "internalType": "address",
                    "name": "depositor",
                    "type": "address"
                },
                {
                    "indexed": false,
                    "internalType": "uint256",
                    "name": "amount",
                    "type": "uint256"
                },
                {
                    "indexed": false,
                    "internalType": "uint256",
                    "name": "depositNo",
                    "type": "uint256"
                },
                {
                    "indexed": false,
                    "internalType": "uint256",
                    "name": "when",
                    "type": "uint256"
                },
                {
                    "indexed": false,
                    "internalType": "uint256",
                    "name": "unlockTime",
                    "type": "uint256"
                }
            ],
            "name": "Deposited",
            "type": "event"
        },
        {
            "anonymous": false,
            "inputs": [
                {
                    "indexed": false,
                    "internalType": "address",
                    "name": "depositor",
                    "type": "address"
                },
                {
                    "indexed": false,
                    "internalType": "uint256",
                    "name": "amount",
                    "type": "uint256"
                },
                {
                    "indexed": false,
                    "internalType": "uint256",
                    "name": "depositNo",
                    "type": "uint256"
                },
                {
                    "indexed": false,
                    "internalType": "uint256",
                    "name": "when",
                    "type": "uint256"
                },
                {
                    "indexed": false,
                    "internalType": "uint256",
                    "name": "unlockTime",
                    "type": "uint256"
                }
            ],
            "name": "FinalWithdraw",
            "type": "event"
        },
        {
            "anonymous": false,
            "inputs": [
                {
                    "indexed": false,
                    "internalType": "address",
                    "name": "depositor",
                    "type": "address"
                },
                {
                    "indexed": false,
                    "internalType": "uint256",
                    "name": "amount",
                    "type": "uint256"
                },
                {
                    "indexed": false,
                    "internalType": "uint256",
                    "name": "amountRemaining",
                    "type": "uint256"
                }
            ],
            "name": "MonthlyWithdraw",
            "type": "event"
        },
        {
            "anonymous": false,
            "inputs": [
                {
                    "indexed": true,
                    "internalType": "address",
                    "name": "previousOwner",
                    "type": "address"
                },
                {
                    "indexed": true,
                    "internalType": "address",
                    "name": "newOwner",
                    "type": "address"
                }
            ],
            "name": "OwnershipTransferred",
            "type": "event"
        },
        {
            "inputs": [
                {
                    "internalType": "uint256",
                    "name": "unlockTime",
                    "type": "uint256"
                },
                {
                    "internalType": "uint256",
                    "name": "monthlyWithdrawBasisPoints",
                    "type": "uint256"
                }
            ],
            "name": "deposit",
            "outputs": [],
            "stateMutability": "payable",
            "type": "function"
        },
        {
            "inputs": [
                {
                    "internalType": "uint256",
                    "name": "depositNo",
                    "type": "uint256"
                }
            ],
            "name": "getDepositStatus",
            "outputs": [
                {
                    "internalType": "uint256",
                    "name": "amount",
                    "type": "uint256"
                },
                {
                    "internalType": "uint256",
                    "name": "unlockTime",
                    "type": "uint256"
                },
                {
                    "internalType": "bool",
                    "name": "isWithdrawn",
                    "type": "bool"
                }
            ],
            "stateMutability": "view",
            "type": "function"
        },
        {
            "inputs": [],
            "name": "getNumDeposits",
            "outputs": [
                {
                    "internalType": "uint256",
                    "name": "",
                    "type": "uint256"
                }
            ],
            "stateMutability": "view",
            "type": "function"
        },
        {
            "inputs": [],
            "name": "owner",
            "outputs": [
                {
                    "internalType": "address",
                    "name": "",
                    "type": "address"
                }
            ],
            "stateMutability": "view",
            "type": "function"
        },
        {
            "inputs": [],
            "name": "renounceOwnership",
            "outputs": [],
            "stateMutability": "nonpayable",
            "type": "function"
        },
        {
            "inputs": [
                {
                    "internalType": "address",
                    "name": "newOwner",
                    "type": "address"
                }
            ],
            "name": "transferOwnership",
            "outputs": [],
            "stateMutability": "nonpayable",
            "type": "function"
        },
        {
            "inputs": [
                {
                    "internalType": "uint256",
                    "name": "depositNo",
                    "type": "uint256"
                }
            ],
            "name": "withdraw",
            "outputs": [],
            "stateMutability": "nonpayable",
            "type": "function"
        },
        {
            "inputs": [
                {
                    "internalType": "address",
                    "name": "to",
                    "type": "address"
                }
            ],
            "name": "withdrawFees",
            "outputs": [],
            "stateMutability": "nonpayable",
            "type": "function"
        },
        {
            "inputs": [
                {
                    "internalType": "uint256",
                    "name": "depositNo",
                    "type": "uint256"
                }
            ],
            "name": "withdrawMonthlyAllowance",
            "outputs": [],
            "stateMutability": "nonpayable",
            "type": "function"
        }
    ],
    "bytecode": "0x608060405234801561001057600080fd5b5061002d61002261003a60201b60201c565b61004260201b60201c565b6000600381905550610106565b600033905090565b60008060009054906101000a900473ffffffffffffffffffffffffffffffffffffffff169050816000806101000a81548173ffffffffffffffffffffffffffffffffffffffff021916908373ffffffffffffffffffffffffffffffffffffffff1602179055508173ffffffffffffffffffffffffffffffffffffffff168173ffffffffffffffffffffffffffffffffffffffff167f8be0079c531659141344cd1fd0a4f28419497f9722a3daafe3b4186f6b6457e060405160405180910390a35050565b6119cf806101156000396000f3fe6080604052600436106100865760003560e01c8063ad0d921411610059578063ad0d92141461011f578063b2e4b0421461015e578063d37ad4be14610187578063e2bbb158146101b2578063f2fde38b146101ce57610086565b8063164e68de1461008b5780632e1a7d4d146100b4578063715018a6146100dd5780638da5cb5b146100f4575b600080fd5b34801561009757600080fd5b506100b260048036038101906100ad91906110a4565b6101f7565b005b3480156100c057600080fd5b506100db60048036038101906100d69190611107565b610259565b005b3480156100e957600080fd5b506100f261054c565b005b34801561010057600080fd5b50610109610560565b6040516101169190611143565b60405180910390f35b34801561012b57600080fd5b5061014660048036038101906101419190611107565b610589565b60405161015593929190611188565b60405180910390f35b34801561016a57600080fd5b5061018560048036038101906101809190611107565b6106ed565b005b34801561019357600080fd5b5061019c610b08565b6040516101a991906111bf565b60405180910390f35b6101cc60048036038101906101c791906111da565b610b56565b005b3480156101da57600080fd5b506101f560048036038101906101f091906110a4565b610e31565b005b6101ff610eb5565b6000600354905060006003819055508173ffffffffffffffffffffffffffffffffffffffff166108fc829081150290604051600060405180830381858888f19350505050158015610254573d6000803e3d6000fd5b505050565b808060026000610267610f33565b73ffffffffffffffffffffffffffffffffffffffff1673ffffffffffffffffffffffffffffffffffffffff16815260200190815260200160002054116102e2576040517f08c379a00000000000000000000000000000000000000000000000000000000081526004016102d990611277565b60405180910390fd5b6000600160006102f0610f33565b73ffffffffffffffffffffffffffffffffffffffff1673ffffffffffffffffffffffffffffffffffffffff168152602001908152602001600020838154811061033c5761033b611297565b5b90600052602060002090600502016040518060a0016040529081600082015481526020016001820154815260200160028201548152602001600382015481526020016004820160009054906101000a900460ff16151515158152505090508060800151156103df576040517f08c379a00000000000000000000000000000000000000000000000000000000081526004016103d690611312565b60405180910390fd5b8060200151421015610426576040517f08c379a000000000000000000000000000000000000000000000000000000000815260040161041d906113a4565b60405180910390fd5b6001806000610433610f33565b73ffffffffffffffffffffffffffffffffffffffff1673ffffffffffffffffffffffffffffffffffffffff168152602001908152602001600020848154811061047f5761047e611297565b5b906000526020600020906005020160040160006101000a81548160ff0219169083151502179055506104af610f33565b73ffffffffffffffffffffffffffffffffffffffff166108fc82600001519081150290604051600060405180830381858888f193505050501580156104f8573d6000803e3d6000fd5b507fabedfafcc3b3fdbf28a39bed3886dcdede6b8dc413bb342b88f243c83294d848610522610f33565b82600001518542856020015160405161053f9594939291906113c4565b60405180910390a1505050565b610554610eb5565b61055e6000610f3b565b565b60008060009054906101000a900473ffffffffffffffffffffffffffffffffffffffff16905090565b600080600083806002600061059c610f33565b73ffffffffffffffffffffffffffffffffffffffff1673ffffffffffffffffffffffffffffffffffffffff1681526020019081526020016000205411610617576040517f08c379a000000000000000000000000000000000000000000000000000000000815260040161060e90611277565b60405180910390fd5b600060016000610625610f33565b73ffffffffffffffffffffffffffffffffffffffff1673ffffffffffffffffffffffffffffffffffffffff168152602001908152602001600020868154811061067157610670611297565b5b90600052602060002090600502016040518060a0016040529081600082015481526020016001820154815260200160028201548152602001600382015481526020016004820160009054906101000a900460ff161515151581525050905080600001518160200151826080015194509450945050509193909250565b8080600260006106fb610f33565b73ffffffffffffffffffffffffffffffffffffffff1673ffffffffffffffffffffffffffffffffffffffff1681526020019081526020016000205411610776576040517f08c379a000000000000000000000000000000000000000000000000000000000815260040161076d90611277565b60405180910390fd5b600060016000610784610f33565b73ffffffffffffffffffffffffffffffffffffffff1673ffffffffffffffffffffffffffffffffffffffff16815260200190815260200160002083815481106107d0576107cf611297565b5b90600052602060002090600502016040518060a0016040529081600082015481526020016001820154815260200160028201548152602001600382015481526020016004820160009054906101000a900460ff1615151515815250509050806080015115610873576040517f08c379a000000000000000000000000000000000000000000000000000000000815260040161086a90611312565b60405180910390fd5b60008160000151116108ba576040517f08c379a00000000000000000000000000000000000000000000000000000000081526004016108b190611463565b60405180910390fd5b6000816040015111610901576040517f08c379a00000000000000000000000000000000000000000000000000000000081526004016108f8906114f5565b60405180910390fd5b62278d0081606001516109149190611544565b421015610956576040517f08c379a000000000000000000000000000000000000000000000000000000000815260040161094d9061160c565b60405180910390fd5b6000816000015182604001511115610972578160000151610978565b81604001515b90506000610993828460000151610fff90919063ffffffff16565b905080600160006109a2610f33565b73ffffffffffffffffffffffffffffffffffffffff1673ffffffffffffffffffffffffffffffffffffffff16815260200190815260200160002086815481106109ee576109ed611297565b5b9060005260206000209060050201600001819055504260016000610a10610f33565b73ffffffffffffffffffffffffffffffffffffffff1673ffffffffffffffffffffffffffffffffffffffff1681526020019081526020016000208681548110610a5c57610a5b611297565b5b906000526020600020906005020160030181905550610a79610f33565b73ffffffffffffffffffffffffffffffffffffffff166108fc839081150290604051600060405180830381858888f19350505050158015610abe573d6000803e3d6000fd5b507f809ad51c2dcd91ba932b748e66a18e0f4a31924cdb8be8c95083a509068dd16c610ae8610f33565b8383604051610af99392919061162c565b60405180910390a15050505050565b600060026000610b16610f33565b73ffffffffffffffffffffffffffffffffffffffff1673ffffffffffffffffffffffffffffffffffffffff16815260200190815260200160002054905090565b814210610b98576040517f08c379a0000000000000000000000000000000000000000000000000000000008152600401610b8f906116d5565b60405180910390fd5b612710811115610bdd576040517f08c379a0000000000000000000000000000000000000000000000000000000008152600401610bd49061178d565b60405180910390fd5b600060026000610beb610f33565b73ffffffffffffffffffffffffffffffffffffffff1673ffffffffffffffffffffffffffffffffffffffff1681526020019081526020016000205490506000610c52612710610c4460193461101590919063ffffffff16565b61102b90919063ffffffff16565b905060008134610c6291906117ad565b90506000610c8d612710610c7f878561101590919063ffffffff16565b61102b90919063ffffffff16565b9050600184610c9c9190611544565b60026000610ca8610f33565b73ffffffffffffffffffffffffffffffffffffffff1673ffffffffffffffffffffffffffffffffffffffff1681526020019081526020016000208190555060016000610cf2610f33565b73ffffffffffffffffffffffffffffffffffffffff1673ffffffffffffffffffffffffffffffffffffffff1681526020019081526020016000206040518060a00160405280848152602001888152602001838152602001600081526020016000151581525090806001815401808255809150506001900390600052602060002090600502016000909190919091506000820151816000015560208201518160010155604082015181600201556060820151816003015560808201518160040160006101000a81548160ff02191690831515021790555050508260036000828254610ddc9190611544565b925050819055507fe3b53cd1a44fbf11535e145d80b8ef1ed6d57a73bf5daa7e939b6b01657d6549610e0c610f33565b8386428a604051610e219594939291906113c4565b60405180910390a1505050505050565b610e39610eb5565b600073ffffffffffffffffffffffffffffffffffffffff168173ffffffffffffffffffffffffffffffffffffffff161415610ea9576040517f08c379a0000000000000000000000000000000000000000000000000000000008152600401610ea090611853565b60405180910390fd5b610eb281610f3b565b50565b610ebd610f33565b73ffffffffffffffffffffffffffffffffffffffff16610edb610560565b73ffffffffffffffffffffffffffffffffffffffff1614610f31576040517f08c379a0000000000000000000000000000000000000000000000000000000008152600401610f28906118bf565b60405180910390fd5b565b600033905090565b60008060009054906101000a900473ffffffffffffffffffffffffffffffffffffffff169050816000806101000a81548173ffffffffffffffffffffffffffffffffffffffff021916908373ffffffffffffffffffffffffffffffffffffffff1602179055508173ffffffffffffffffffffffffffffffffffffffff168173ffffffffffffffffffffffffffffffffffffffff167f8be0079c531659141344cd1fd0a4f28419497f9722a3daafe3b4186f6b6457e060405160405180910390a35050565b6000818361100d91906117ad565b905092915050565b6000818361102391906118df565b905092915050565b600081836110399190611968565b905092915050565b600080fd5b600073ffffffffffffffffffffffffffffffffffffffff82169050919050565b600061107182611046565b9050919050565b61108181611066565b811461108c57600080fd5b50565b60008135905061109e81611078565b92915050565b6000602082840312156110ba576110b9611041565b5b60006110c88482850161108f565b91505092915050565b6000819050919050565b6110e4816110d1565b81146110ef57600080fd5b50565b600081359050611101816110db565b92915050565b60006020828403121561111d5761111c611041565b5b600061112b848285016110f2565b91505092915050565b61113d81611066565b82525050565b60006020820190506111586000830184611134565b92915050565b611167816110d1565b82525050565b60008115159050919050565b6111828161116d565b82525050565b600060608201905061119d600083018661115e565b6111aa602083018561115e565b6111b76040830184611179565b949350505050565b60006020820190506111d4600083018461115e565b92915050565b600080604083850312156111f1576111f0611041565b5b60006111ff858286016110f2565b9250506020611210858286016110f2565b9150509250929050565b600082825260208201905092915050565b7f4c616361743a204465706f73697420646f65736e277420657869737400000000600082015250565b6000611261601c8361121a565b915061126c8261122b565b602082019050919050565b6000602082019050818103600083015261129081611254565b9050919050565b7f4e487b7100000000000000000000000000000000000000000000000000000000600052603260045260246000fd5b7f4c616361743a204465706f73697420616c72656164792077697468647261776e600082015250565b60006112fc60208361121a565b9150611307826112c6565b602082019050919050565b6000602082019050818103600083015261132b816112ef565b9050919050565b7f4c6f636b3a204465706f736974206e6f742079657420726561647920746f206260008201527f652077697468647261776e000000000000000000000000000000000000000000602082015250565b600061138e602b8361121a565b915061139982611332565b604082019050919050565b600060208201905081810360008301526113bd81611381565b9050919050565b600060a0820190506113d96000830188611134565b6113e6602083018761115e565b6113f3604083018661115e565b611400606083018561115e565b61140d608083018461115e565b9695505050505050565b7f4c616361743a204e6f2066756e647320746f2077697468647261770000000000600082015250565b600061144d601b8361121a565b915061145882611417565b602082019050919050565b6000602082019050818103600083015261147c81611440565b9050919050565b7f4c616361743a204d6f6e746c79207769746864726177616c206e6f7420616c6c60008201527f6f77656400000000000000000000000000000000000000000000000000000000602082015250565b60006114df60248361121a565b91506114ea82611483565b604082019050919050565b6000602082019050818103600083015261150e816114d2565b9050919050565b7f4e487b7100000000000000000000000000000000000000000000000000000000600052601160045260246000fd5b600061154f826110d1565b915061155a836110d1565b9250827fffffffffffffffffffffffffffffffffffffffffffffffffffffffffffffffff0382111561158f5761158e611515565b5b828201905092915050565b7f4c616361743a204c617374207769746864726177616c2077617320776974686960008201527f6e2061206d6f6e74680000000000000000000000000000000000000000000000602082015250565b60006115f660298361121a565b91506116018261159a565b604082019050919050565b60006020820190508181036000830152611625816115e9565b9050919050565b60006060820190506116416000830186611134565b61164e602083018561115e565b61165b604083018461115e565b949350505050565b7f4c616361743a20556e6c6f636b2074696d65206d75737420626520696e20667560008201527f7475726500000000000000000000000000000000000000000000000000000000602082015250565b60006116bf60248361121a565b91506116ca82611663565b604082019050919050565b600060208201905081810360008301526116ee816116b2565b9050919050565b7f4c616361743a204d6f6e74686c7920776974686472617720626173697320706f60008201527f696e74206d757374206e6f742062652067726561746572207468616e2031303060208201527f3030000000000000000000000000000000000000000000000000000000000000604082015250565b600061177760428361121a565b9150611782826116f5565b606082019050919050565b600060208201905081810360008301526117a68161176a565b9050919050565b60006117b8826110d1565b91506117c3836110d1565b9250828210156117d6576117d5611515565b5b828203905092915050565b7f4f776e61626c653a206e6577206f776e657220697320746865207a65726f206160008201527f6464726573730000000000000000000000000000000000000000000000000000602082015250565b600061183d60268361121a565b9150611848826117e1565b604082019050919050565b6000602082019050818103600083015261186c81611830565b9050919050565b7f4f776e61626c653a2063616c6c6572206973206e6f7420746865206f776e6572600082015250565b60006118a960208361121a565b91506118b482611873565b602082019050919050565b600060208201905081810360008301526118d88161189c565b9050919050565b60006118ea826110d1565b91506118f5836110d1565b9250817fffffffffffffffffffffffffffffffffffffffffffffffffffffffffffffffff048311821515161561192e5761192d611515565b5b828202905092915050565b7f4e487b7100000000000000000000000000000000000000000000000000000000600052601260045260246000fd5b6000611973826110d1565b915061197e836110d1565b92508261198e5761198d611939565b5b82820490509291505056fea2646970667358221220af49ddbe03ac94e9ad45f66d43cf2421fd7c8702a9f83cfd04d658cbad31af6964736f6c63430008090033",
    "linkReferences": {},
    "deployedLinkReferences": {}
}